{
  "contractName": "BudgetWallet",
  "abi": [
    {
      "anonymous": false,
      "inputs": [
        {
          "indexed": false,
          "internalType": "address",
          "name": "_owner",
          "type": "address"
        }
      ],
      "name": "WalletCreated",
      "type": "event"
    },
    {
      "inputs": [
        {
          "internalType": "string[]",
          "name": "_titles",
          "type": "string[]"
        },
        {
          "internalType": "uint256[]",
          "name": "_percents",
          "type": "uint256[]"
        },
        {
          "internalType": "address",
          "name": "_owner",
          "type": "address"
        }
      ],
      "name": "Initialize",
      "outputs": [],
      "stateMutability": "nonpayable",
      "type": "function"
    },
    {
      "inputs": [],
      "name": "getBudget",
      "outputs": [
        {
          "components": [
            {
              "internalType": "uint256",
              "name": "_index",
              "type": "uint256"
            },
            {
              "internalType": "string",
              "name": "_title",
              "type": "string"
            },
            {
              "internalType": "uint256",
              "name": "_percent",
              "type": "uint256"
            },
            {
              "internalType": "uint256",
              "name": "_totalSpend",
              "type": "uint256"
            }
          ],
          "internalType": "struct BudgetWallet.BudgetItem[]",
          "name": "_budgets",
          "type": "tuple[]"
        }
      ],
      "stateMutability": "view",
      "type": "function"
    },
    {
      "inputs": [
        {
          "internalType": "address",
          "name": "_token",
          "type": "address"
        }
      ],
      "name": "getTokenBudget",
      "outputs": [
        {
          "components": [
            {
              "internalType": "uint256",
              "name": "_index",
              "type": "uint256"
            },
            {
              "internalType": "string",
              "name": "_title",
              "type": "string"
            },
            {
              "internalType": "uint256",
              "name": "_percent",
              "type": "uint256"
            },
            {
              "internalType": "uint256",
              "name": "_totalSpend",
              "type": "uint256"
            }
          ],
          "internalType": "struct BudgetWallet.BudgetItem[]",
          "name": "_budgets",
          "type": "tuple[]"
        }
      ],
      "stateMutability": "view",
      "type": "function"
    }
  ],
  "bytecode": "0x608060405234801561001057600080fd5b50610cd7806100206000396000f3fe608060405234801561001057600080fd5b50600436106100415760003560e01c8063127714c7146100465780635ebf34cb14610064578063da2d2d2a14610094575b600080fd5b61004e6100b0565b60405161005b9190610719565b60405180910390f35b61007e600480360381019061007991906107ad565b6101bf565b60405161008b9190610719565b60405180910390f35b6100ae60048036038101906100a99190610ae4565b61030d565b005b60606001805480602002602001604051908101604052809291908181526020016000905b828210156101b657838290600052602060002090600402016040518060800160405290816000820154815260200160018201805461011190610b9e565b80601f016020809104026020016040519081016040528092919081815260200182805461013d90610b9e565b801561018a5780601f1061015f5761010080835404028352916020019161018a565b820191906000526020600020905b81548152906001019060200180831161016d57829003601f168201915b5050505050815260200160028201548152602001600382015481525050815260200190600101906100d4565b50505050905090565b6060600260008373ffffffffffffffffffffffffffffffffffffffff1673ffffffffffffffffffffffffffffffffffffffff168152602001908152602001600020805480602002602001604051908101604052809291908181526020016000905b8282101561030257838290600052602060002090600402016040518060800160405290816000820154815260200160018201805461025d90610b9e565b80601f016020809104026020016040519081016040528092919081815260200182805461028990610b9e565b80156102d65780601f106102ab576101008083540402835291602001916102d6565b820191906000526020600020905b8154815290600101906020018083116102b957829003601f168201915b505050505081526020016002820154815260200160038201548152505081526020019060010190610220565b505050509050919050565b806000806101000a81548173ffffffffffffffffffffffffffffffffffffffff021916908373ffffffffffffffffffffffffffffffffffffffff160217905550610355610477565b60005b8451811015610439578082600001818152505084818151811061037e5761037d610bd0565b5b602002602001015182602001819052508381815181106103a1576103a0610bd0565b5b60200260200101518260400181815250506000826060018181525050600182908060018154018082558091505060019003906000526020600020906004020160009091909190915060008201518160000155602082015181600101908051906020019061040f92919061049f565b5060408201518160020155606082015181600301555050808061043190610c2e565b915050610358565b507f234cf33b32239d80b54161e2396c80cdeaf4d34161300e54d8bc01eb7c0ea553826040516104699190610c86565b60405180910390a150505050565b6040518060800160405280600081526020016060815260200160008152602001600081525090565b8280546104ab90610b9e565b90600052602060002090601f0160209004810192826104cd5760008555610514565b82601f106104e657805160ff1916838001178555610514565b82800160010185558215610514579182015b828111156105135782518255916020019190600101906104f8565b5b5090506105219190610525565b5090565b5b8082111561053e576000816000905550600101610526565b5090565b600081519050919050565b600082825260208201905092915050565b6000819050602082019050919050565b6000819050919050565b6105818161056e565b82525050565b600081519050919050565b600082825260208201905092915050565b60005b838110156105c15780820151818401526020810190506105a6565b838111156105d0576000848401525b50505050565b6000601f19601f8301169050919050565b60006105f282610587565b6105fc8185610592565b935061060c8185602086016105a3565b610615816105d6565b840191505092915050565b60006080830160008301516106386000860182610578565b506020830151848203602086015261065082826105e7565b91505060408301516106656040860182610578565b5060608301516106786060860182610578565b508091505092915050565b600061068f8383610620565b905092915050565b6000602082019050919050565b60006106af82610542565b6106b9818561054d565b9350836020820285016106cb8561055e565b8060005b8581101561070757848403895281516106e88582610683565b94506106f383610697565b925060208a019950506001810190506106cf565b50829750879550505050505092915050565b6000602082019050818103600083015261073381846106a4565b905092915050565b6000604051905090565b600080fd5b600080fd5b600073ffffffffffffffffffffffffffffffffffffffff82169050919050565b600061077a8261074f565b9050919050565b61078a8161076f565b811461079557600080fd5b50565b6000813590506107a781610781565b92915050565b6000602082840312156107c3576107c2610745565b5b60006107d184828501610798565b91505092915050565b600080fd5b7f4e487b7100000000000000000000000000000000000000000000000000000000600052604160045260246000fd5b610817826105d6565b810181811067ffffffffffffffff82111715610836576108356107df565b5b80604052505050565b600061084961073b565b9050610855828261080e565b919050565b600067ffffffffffffffff821115610875576108746107df565b5b602082029050602081019050919050565b600080fd5b600080fd5b600067ffffffffffffffff8211156108ab576108aa6107df565b5b6108b4826105d6565b9050602081019050919050565b82818337600083830152505050565b60006108e36108de84610890565b61083f565b9050828152602081018484840111156108ff576108fe61088b565b5b61090a8482856108c1565b509392505050565b600082601f830112610927576109266107da565b5b81356109378482602086016108d0565b91505092915050565b600061095361094e8461085a565b61083f565b9050808382526020820190506020840283018581111561097657610975610886565b5b835b818110156109bd57803567ffffffffffffffff81111561099b5761099a6107da565b5b8086016109a88982610912565b85526020850194505050602081019050610978565b5050509392505050565b600082601f8301126109dc576109db6107da565b5b81356109ec848260208601610940565b91505092915050565b600067ffffffffffffffff821115610a1057610a0f6107df565b5b602082029050602081019050919050565b610a2a8161056e565b8114610a3557600080fd5b50565b600081359050610a4781610a21565b92915050565b6000610a60610a5b846109f5565b61083f565b90508083825260208201905060208402830185811115610a8357610a82610886565b5b835b81811015610aac5780610a988882610a38565b845260208401935050602081019050610a85565b5050509392505050565b600082601f830112610acb57610aca6107da565b5b8135610adb848260208601610a4d565b91505092915050565b600080600060608486031215610afd57610afc610745565b5b600084013567ffffffffffffffff811115610b1b57610b1a61074a565b5b610b27868287016109c7565b935050602084013567ffffffffffffffff811115610b4857610b4761074a565b5b610b5486828701610ab6565b9250506040610b6586828701610798565b9150509250925092565b7f4e487b7100000000000000000000000000000000000000000000000000000000600052602260045260246000fd5b60006002820490506001821680610bb657607f821691505b60208210811415610bca57610bc9610b6f565b5b50919050565b7f4e487b7100000000000000000000000000000000000000000000000000000000600052603260045260246000fd5b7f4e487b7100000000000000000000000000000000000000000000000000000000600052601160045260246000fd5b6000610c398261056e565b91507fffffffffffffffffffffffffffffffffffffffffffffffffffffffffffffffff821415610c6c57610c6b610bff565b5b600182019050919050565b610c808161076f565b82525050565b6000602082019050610c9b6000830184610c77565b9291505056fea264697066735822122068a44bfdf4c4e660635fbc0420ac05a508ffc81435d40d1dd3440ac72d6860cb64736f6c634300080a0033",
  "immutableReferences": {},
  "source": "// SPDX-License-Identifier: MIT\r\npragma solidity ^0.8.7;\r\n\r\ncontract BudgetWallet {\r\n\r\naddress owner;\r\n// address Factory = '';\r\n\r\nstruct BudgetItem {\r\n    uint _index;\r\n    string _title;\r\n    uint256 _percent;\r\n    uint256 _totalSpend;\r\n}\r\n\r\n\r\n\r\nevent WalletCreated(address _owner);\r\n\r\nBudgetItem[] Budgets;\r\nmapping(address => BudgetItem[]) TokenBudgets;\r\n\r\n\r\nfunction Initialize(string[] memory _titles,uint256[] memory _percents,address _owner) public {\r\n    // require(msg.sender == Factory,'FORBIDDEN');\r\n    owner = _owner;\r\n    BudgetItem memory cItem;\r\n    for (uint256 index = 0; index < _titles.length; index++) {\r\n        cItem._index = index;\r\n        cItem._title = _titles[index];\r\n        cItem._percent = _percents[index];\r\n        cItem._totalSpend = 0;\r\n        Budgets.push(cItem);\r\n    }\r\n    emit WalletCreated(_owner);\r\n}\r\n\r\n\r\nfunction getBudget() public view returns(BudgetItem[] memory _budgets){\r\n    return Budgets;\r\n}\r\n\r\nfunction getTokenBudget(address _token) public view returns(BudgetItem[] memory _budgets) {\r\n    return TokenBudgets[_token];\r\n}\r\n\r\n\r\n\r\n\r\n\r\n\r\n}\r\n",
  "sourcePath": "D:\\NewProjects\\ProRata Wallet\\Front\\contracts\\BudgetWallet.sol",
  "compiler": {
    "name": "solc",
    "version": "0.8.10+commit.fc410830.Emscripten.clang"
  },
  "schemaVersion": "3.4.4",
  "updatedAt": "2024-01-04T16:36:41.751Z",
  "devdoc": {
    "kind": "dev",
    "methods": {},
    "version": 1
  },
  "userdoc": {
    "kind": "user",
    "methods": {},
    "version": 1
  }
}