{
  "contractName": "InstantWallet",
  "abi": [
    {
      "inputs": [],
      "stateMutability": "nonpayable",
      "type": "constructor"
    },
    {
      "anonymous": false,
      "inputs": [
        {
          "indexed": false,
          "internalType": "address",
          "name": "_from",
          "type": "address"
        },
        {
          "indexed": false,
          "internalType": "uint256",
          "name": "_amount",
          "type": "uint256"
        }
      ],
      "name": "Transfer",
      "type": "event"
    },
    {
      "inputs": [],
      "name": "owner",
      "outputs": [
        {
          "internalType": "address",
          "name": "",
          "type": "address"
        }
      ],
      "stateMutability": "view",
      "type": "function"
    },
    {
      "stateMutability": "payable",
      "type": "receive"
    },
    {
      "inputs": [
        {
          "internalType": "address[]",
          "name": "_walletlist",
          "type": "address[]"
        },
        {
          "internalType": "uint256[]",
          "name": "_percent",
          "type": "uint256[]"
        },
        {
          "internalType": "string",
          "name": "_name",
          "type": "string"
        },
        {
          "internalType": "address",
          "name": "_owner",
          "type": "address"
        }
      ],
      "name": "Initialize",
      "outputs": [],
      "stateMutability": "nonpayable",
      "type": "function"
    },
    {
      "inputs": [],
      "name": "getWallet",
      "outputs": [
        {
          "components": [
            {
              "internalType": "string",
              "name": "_name",
              "type": "string"
            },
            {
              "internalType": "address[]",
              "name": "_list",
              "type": "address[]"
            },
            {
              "internalType": "uint256[]",
              "name": "_percent",
              "type": "uint256[]"
            },
            {
              "internalType": "bool",
              "name": "_status",
              "type": "bool"
            },
            {
              "internalType": "uint256",
              "name": "_total",
              "type": "uint256"
            }
          ],
          "internalType": "struct IInstantWallet.wallets",
          "name": "_wallets",
          "type": "tuple"
        }
      ],
      "stateMutability": "view",
      "type": "function"
    },
    {
      "inputs": [],
      "name": "getTransactionsCount",
      "outputs": [
        {
          "internalType": "uint256",
          "name": "_count",
          "type": "uint256"
        }
      ],
      "stateMutability": "view",
      "type": "function"
    },
    {
      "inputs": [],
      "name": "getTransactions",
      "outputs": [
        {
          "components": [
            {
              "internalType": "address",
              "name": "_from",
              "type": "address"
            },
            {
              "internalType": "address",
              "name": "_to",
              "type": "address"
            },
            {
              "internalType": "string",
              "name": "_side",
              "type": "string"
            },
            {
              "internalType": "uint256",
              "name": "_amount",
              "type": "uint256"
            }
          ],
          "internalType": "struct IInstantWallet.Transaction[]",
          "name": "_transactions",
          "type": "tuple[]"
        }
      ],
      "stateMutability": "view",
      "type": "function"
    },
    {
      "inputs": [],
      "name": "stop",
      "outputs": [],
      "stateMutability": "nonpayable",
      "type": "function"
    },
    {
      "inputs": [],
      "name": "start",
      "outputs": [],
      "stateMutability": "nonpayable",
      "type": "function"
    },
    {
      "inputs": [],
      "name": "getStopStatus",
      "outputs": [
        {
          "internalType": "bool",
          "name": "_stop",
          "type": "bool"
        }
      ],
      "stateMutability": "view",
      "type": "function"
    }
  ],
  "bytecode": "0x608060405234801561001057600080fd5b5033600460006101000a81548173ffffffffffffffffffffffffffffffffffffffff021916908373ffffffffffffffffffffffffffffffffffffffff16021790555061286d806100616000396000f3fe60806040526004361061007f5760003560e01c806383920e901161004e57806383920e9014610bd95780638da5cb5b14610c04578063be9a655514610c2f578063dd45c9b814610c4657610b3e565b806307da68f514610b435780630a77ef4014610b5a5780631329960414610b83578063578cb8f914610bae57610b3e565b36610b3e576000349050600060036000610097610c71565b73ffffffffffffffffffffffffffffffffffffffff1673ffffffffffffffffffffffffffffffffffffffff16815260200190815260200160002060030160009054906101000a900460ff16905060003390506000600360006100f7610c71565b73ffffffffffffffffffffffffffffffffffffffff1673ffffffffffffffffffffffffffffffffffffffff1681526020019081526020016000206040518060a001604052908160008201805461014c90611c12565b80601f016020809104026020016040519081016040528092919081815260200182805461017890611c12565b80156101c55780601f1061019a576101008083540402835291602001916101c5565b820191906000526020600020905b8154815290600101906020018083116101a857829003601f168201915b505050505081526020016001820180548060200260200160405190810160405280929190818152602001828054801561025357602002820191906000526020600020905b8160009054906101000a900473ffffffffffffffffffffffffffffffffffffffff1673ffffffffffffffffffffffffffffffffffffffff1681526020019060010190808311610209575b50505050508152602001600282018054806020026020016040519081016040528092919081815260200182805480156102ab57602002820191906000526020600020905b815481526020019060010190808311610297575b505050505081526020016003820160009054906101000a900460ff16151515158152602001600482015481525050905083816080018181516102ed9190611c7d565b91508181525050600260405180608001604052808473ffffffffffffffffffffffffffffffffffffffff1681526020013073ffffffffffffffffffffffffffffffffffffffff1681526020016040518060400160405280600281526020017f494e000000000000000000000000000000000000000000000000000000000000815250815260200186815250908060018154018082558091505060019003906000526020600020906004020160009091909190915060008201518160000160006101000a81548173ffffffffffffffffffffffffffffffffffffffff021916908373ffffffffffffffffffffffffffffffffffffffff16021790555060208201518160010160006101000a81548173ffffffffffffffffffffffffffffffffffffffff021916908373ffffffffffffffffffffffffffffffffffffffff160217905550604082015181600201908051906020019061044b929190611a38565b506060820151816003015550508060036000610465610c71565b73ffffffffffffffffffffffffffffffffffffffff1673ffffffffffffffffffffffffffffffffffffffff16815260200190815260200160002060008201518160000190805190602001906104bb929190611a38565b5060208201518160010190805190602001906104d8929190611abe565b5060408201518160020190805190602001906104f5929190611b48565b5060608201518160030160006101000a81548160ff021916908315150217905550608082015181600401559050508261097e5760005b60036000610537610c71565b73ffffffffffffffffffffffffffffffffffffffff1673ffffffffffffffffffffffffffffffffffffffff1681526020019081526020016000206001018054905081101561093f576003600061058b610c71565b73ffffffffffffffffffffffffffffffffffffffff1673ffffffffffffffffffffffffffffffffffffffff16815260200190815260200160002060010181815481106105da576105d9611cd3565b5b9060005260206000200160009054906101000a900473ffffffffffffffffffffffffffffffffffffffff1673ffffffffffffffffffffffffffffffffffffffff166108fc60646003600061062c610c71565b73ffffffffffffffffffffffffffffffffffffffff1673ffffffffffffffffffffffffffffffffffffffff168152602001908152602001600020600201848154811061067b5761067a611cd3565b5b9060005260206000200154886106919190611d02565b61069b9190611d8b565b9081150290604051600060405180830381858888f193505050501580156106c6573d6000803e3d6000fd5b50600260405180608001604052803073ffffffffffffffffffffffffffffffffffffffff168152602001600360006106fc610c71565b73ffffffffffffffffffffffffffffffffffffffff1673ffffffffffffffffffffffffffffffffffffffff168152602001908152602001600020600101848154811061074b5761074a611cd3565b5b9060005260206000200160009054906101000a900473ffffffffffffffffffffffffffffffffffffffff1673ffffffffffffffffffffffffffffffffffffffff1681526020016040518060400160405280600381526020017f4f5554000000000000000000000000000000000000000000000000000000000081525081526020016064600360006107da610c71565b73ffffffffffffffffffffffffffffffffffffffff1673ffffffffffffffffffffffffffffffffffffffff168152602001908152602001600020600201858154811061082957610828611cd3565b5b90600052602060002001548961083f9190611d02565b6108499190611d8b565b815250908060018154018082558091505060019003906000526020600020906004020160009091909190915060008201518160000160006101000a81548173ffffffffffffffffffffffffffffffffffffffff021916908373ffffffffffffffffffffffffffffffffffffffff16021790555060208201518160010160006101000a81548173ffffffffffffffffffffffffffffffffffffffff021916908373ffffffffffffffffffffffffffffffffffffffff160217905550604082015181600201908051906020019061091f929190611a38565b50606082015181600301555050808061093790611dbc565b91505061052b565b507f69ca02dd4edd7bf0a4abb9ed3b7af3f14778db5d61921c7dc7cd545266326de28285604051610971929190611e55565b60405180910390a1610b38565b610986610c71565b73ffffffffffffffffffffffffffffffffffffffff166108fc859081150290604051600060405180830381858888f193505050501580156109cb573d6000803e3d6000fd5b50600260405180608001604052803073ffffffffffffffffffffffffffffffffffffffff1681526020016109fd610c71565b73ffffffffffffffffffffffffffffffffffffffff1681526020016040518060400160405280600381526020017f4f55540000000000000000000000000000000000000000000000000000000000815250815260200186815250908060018154018082558091505060019003906000526020600020906004020160009091909190915060008201518160000160006101000a81548173ffffffffffffffffffffffffffffffffffffffff021916908373ffffffffffffffffffffffffffffffffffffffff16021790555060208201518160010160006101000a81548173ffffffffffffffffffffffffffffffffffffffff021916908373ffffffffffffffffffffffffffffffffffffffff1602179055506040820151816002019080519060200190610b2a929190611a38565b506060820151816003015550505b50505050005b600080fd5b348015610b4f57600080fd5b50610b58610c9a565b005b348015610b6657600080fd5b50610b816004803603810190610b7c91906121bb565b610f73565b005b348015610b8f57600080fd5b50610b986111f6565b604051610ba59190612519565b60405180910390f35b348015610bba57600080fd5b50610bc3611484565b604051610bd0919061253b565b60405180910390f35b348015610be557600080fd5b50610bee611491565b604051610bfb919061267b565b60405180910390f35b348015610c1057600080fd5b50610c19610c71565b604051610c26919061269d565b60405180910390f35b348015610c3b57600080fd5b50610c44611638565b005b348015610c5257600080fd5b50610c5b611911565b604051610c6891906126c7565b60405180910390f35b60008060009054906101000a900473ffffffffffffffffffffffffffffffffffffffff16905090565b610ca261196f565b600060036000610cb0610c71565b73ffffffffffffffffffffffffffffffffffffffff1673ffffffffffffffffffffffffffffffffffffffff1681526020019081526020016000206040518060a0016040529081600082018054610d0590611c12565b80601f0160208091040260200160405190810160405280929190818152602001828054610d3190611c12565b8015610d7e5780601f10610d5357610100808354040283529160200191610d7e565b820191906000526020600020905b815481529060010190602001808311610d6157829003601f168201915b5050505050815260200160018201805480602002602001604051908101604052809291908181526020018280548015610e0c57602002820191906000526020600020905b8160009054906101000a900473ffffffffffffffffffffffffffffffffffffffff1673ffffffffffffffffffffffffffffffffffffffff1681526020019060010190808311610dc2575b5050505050815260200160028201805480602002602001604051908101604052809291908181526020018280548015610e6457602002820191906000526020600020905b815481526020019060010190808311610e50575b505050505081526020016003820160009054906101000a900460ff16151515158152602001600482015481525050905060018160600190151590811515815250508060036000610eb2610c71565b73ffffffffffffffffffffffffffffffffffffffff1673ffffffffffffffffffffffffffffffffffffffff1681526020019081526020016000206000820151816000019080519060200190610f08929190611a38565b506020820151816001019080519060200190610f25929190611abe565b506040820151816002019080519060200190610f42929190611b48565b5060608201518160030160006101000a81548160ff0219169083151502179055506080820151816004015590505050565b600460009054906101000a900473ffffffffffffffffffffffffffffffffffffffff1673ffffffffffffffffffffffffffffffffffffffff163373ffffffffffffffffffffffffffffffffffffffff1614611003576040517f08c379a0000000000000000000000000000000000000000000000000000000008152600401610ffa9061273f565b60405180910390fd5b61100c816119ed565b6001806000611019610c71565b73ffffffffffffffffffffffffffffffffffffffff1673ffffffffffffffffffffffffffffffffffffffff16815260200190815260200160002060006101000a81548160ff02191690831515021790555060005b84518110156110fa57600180600087848151811061108e5761108d611cd3565b5b602002602001015173ffffffffffffffffffffffffffffffffffffffff1673ffffffffffffffffffffffffffffffffffffffff16815260200190815260200160002060006101000a81548160ff02191690831515021790555080806110f290611dbc565b91505061106d565b506040518060a00160405280838152602001858152602001848152602001600015158152602001600081525060036000611132610c71565b73ffffffffffffffffffffffffffffffffffffffff1673ffffffffffffffffffffffffffffffffffffffff1681526020019081526020016000206000820151816000019080519060200190611188929190611a38565b5060208201518160010190805190602001906111a5929190611abe565b5060408201518160020190805190602001906111c2929190611b48565b5060608201518160030160006101000a81548160ff0219169083151502179055506080820151816004015590505050505050565b6111fe611b95565b6001600061120a611a30565b73ffffffffffffffffffffffffffffffffffffffff1673ffffffffffffffffffffffffffffffffffffffff16815260200190815260200160002060009054906101000a900460ff16611291576040517f08c379a0000000000000000000000000000000000000000000000000000000008152600401611288906127ab565b60405180910390fd5b6003600061129d610c71565b73ffffffffffffffffffffffffffffffffffffffff1673ffffffffffffffffffffffffffffffffffffffff1681526020019081526020016000206040518060a00160405290816000820180546112f290611c12565b80601f016020809104026020016040519081016040528092919081815260200182805461131e90611c12565b801561136b5780601f106113405761010080835404028352916020019161136b565b820191906000526020600020905b81548152906001019060200180831161134e57829003601f168201915b50505050508152602001600182018054806020026020016040519081016040528092919081815260200182805480156113f957602002820191906000526020600020905b8160009054906101000a900473ffffffffffffffffffffffffffffffffffffffff1673ffffffffffffffffffffffffffffffffffffffff16815260200190600101908083116113af575b505050505081526020016002820180548060200260200160405190810160405280929190818152602001828054801561145157602002820191906000526020600020905b81548152602001906001019080831161143d575b505050505081526020016003820160009054906101000a900460ff16151515158152602001600482015481525050905090565b6000600280549050905090565b60606002805480602002602001604051908101604052809291908181526020016000905b8282101561162f57838290600052602060002090600402016040518060800160405290816000820160009054906101000a900473ffffffffffffffffffffffffffffffffffffffff1673ffffffffffffffffffffffffffffffffffffffff1673ffffffffffffffffffffffffffffffffffffffff1681526020016001820160009054906101000a900473ffffffffffffffffffffffffffffffffffffffff1673ffffffffffffffffffffffffffffffffffffffff1673ffffffffffffffffffffffffffffffffffffffff16815260200160028201805461159490611c12565b80601f01602080910402602001604051908101604052809291908181526020018280546115c090611c12565b801561160d5780601f106115e25761010080835404028352916020019161160d565b820191906000526020600020905b8154815290600101906020018083116115f057829003601f168201915b50505050508152602001600382015481525050815260200190600101906114b5565b50505050905090565b61164061196f565b60006003600061164e610c71565b73ffffffffffffffffffffffffffffffffffffffff1673ffffffffffffffffffffffffffffffffffffffff1681526020019081526020016000206040518060a00160405290816000820180546116a390611c12565b80601f01602080910402602001604051908101604052809291908181526020018280546116cf90611c12565b801561171c5780601f106116f15761010080835404028352916020019161171c565b820191906000526020600020905b8154815290600101906020018083116116ff57829003601f168201915b50505050508152602001600182018054806020026020016040519081016040528092919081815260200182805480156117aa57602002820191906000526020600020905b8160009054906101000a900473ffffffffffffffffffffffffffffffffffffffff1673ffffffffffffffffffffffffffffffffffffffff1681526020019060010190808311611760575b505050505081526020016002820180548060200260200160405190810160405280929190818152602001828054801561180257602002820191906000526020600020905b8154815260200190600101908083116117ee575b505050505081526020016003820160009054906101000a900460ff16151515158152602001600482015481525050905060008160600190151590811515815250508060036000611850610c71565b73ffffffffffffffffffffffffffffffffffffffff1673ffffffffffffffffffffffffffffffffffffffff16815260200190815260200160002060008201518160000190805190602001906118a6929190611a38565b5060208201518160010190805190602001906118c3929190611abe565b5060408201518160020190805190602001906118e0929190611b48565b5060608201518160030160006101000a81548160ff0219169083151502179055506080820151816004015590505050565b60006003600061191f610c71565b73ffffffffffffffffffffffffffffffffffffffff1673ffffffffffffffffffffffffffffffffffffffff16815260200190815260200160002060030160009054906101000a900460ff16905090565b611977611a30565b73ffffffffffffffffffffffffffffffffffffffff16611995610c71565b73ffffffffffffffffffffffffffffffffffffffff16146119eb576040517f08c379a00000000000000000000000000000000000000000000000000000000081526004016119e290612817565b60405180910390fd5b565b806000806101000a81548173ffffffffffffffffffffffffffffffffffffffff021916908373ffffffffffffffffffffffffffffffffffffffff16021790555050565b600033905090565b828054611a4490611c12565b90600052602060002090601f016020900481019282611a665760008555611aad565b82601f10611a7f57805160ff1916838001178555611aad565b82800160010185558215611aad579182015b82811115611aac578251825591602001919060010190611a91565b5b509050611aba9190611bc6565b5090565b828054828255906000526020600020908101928215611b37579160200282015b82811115611b365782518260006101000a81548173ffffffffffffffffffffffffffffffffffffffff021916908373ffffffffffffffffffffffffffffffffffffffff16021790555091602001919060010190611ade565b5b509050611b449190611bc6565b5090565b828054828255906000526020600020908101928215611b84579160200282015b82811115611b83578251825591602001919060010190611b68565b5b509050611b919190611bc6565b5090565b6040518060a00160405280606081526020016060815260200160608152602001600015158152602001600081525090565b5b80821115611bdf576000816000905550600101611bc7565b5090565b7f4e487b7100000000000000000000000000000000000000000000000000000000600052602260045260246000fd5b60006002820490506001821680611c2a57607f821691505b60208210811415611c3e57611c3d611be3565b5b50919050565b6000819050919050565b7f4e487b7100000000000000000000000000000000000000000000000000000000600052601160045260246000fd5b6000611c8882611c44565b9150611c9383611c44565b9250827fffffffffffffffffffffffffffffffffffffffffffffffffffffffffffffffff03821115611cc857611cc7611c4e565b5b828201905092915050565b7f4e487b7100000000000000000000000000000000000000000000000000000000600052603260045260246000fd5b6000611d0d82611c44565b9150611d1883611c44565b9250817fffffffffffffffffffffffffffffffffffffffffffffffffffffffffffffffff0483118215151615611d5157611d50611c4e565b5b828202905092915050565b7f4e487b7100000000000000000000000000000000000000000000000000000000600052601260045260246000fd5b6000611d9682611c44565b9150611da183611c44565b925082611db157611db0611d5c565b5b828204905092915050565b6000611dc782611c44565b91507fffffffffffffffffffffffffffffffffffffffffffffffffffffffffffffffff821415611dfa57611df9611c4e565b5b600182019050919050565b600073ffffffffffffffffffffffffffffffffffffffff82169050919050565b6000611e3082611e05565b9050919050565b611e4081611e25565b82525050565b611e4f81611c44565b82525050565b6000604082019050611e6a6000830185611e37565b611e776020830184611e46565b9392505050565b6000604051905090565b600080fd5b600080fd5b600080fd5b6000601f19601f8301169050919050565b7f4e487b7100000000000000000000000000000000000000000000000000000000600052604160045260246000fd5b611ee082611e97565b810181811067ffffffffffffffff82111715611eff57611efe611ea8565b5b80604052505050565b6000611f12611e7e565b9050611f1e8282611ed7565b919050565b600067ffffffffffffffff821115611f3e57611f3d611ea8565b5b602082029050602081019050919050565b600080fd5b611f5d81611e25565b8114611f6857600080fd5b50565b600081359050611f7a81611f54565b92915050565b6000611f93611f8e84611f23565b611f08565b90508083825260208201905060208402830185811115611fb657611fb5611f4f565b5b835b81811015611fdf5780611fcb8882611f6b565b845260208401935050602081019050611fb8565b5050509392505050565b600082601f830112611ffe57611ffd611e92565b5b813561200e848260208601611f80565b91505092915050565b600067ffffffffffffffff82111561203257612031611ea8565b5b602082029050602081019050919050565b61204c81611c44565b811461205757600080fd5b50565b60008135905061206981612043565b92915050565b600061208261207d84612017565b611f08565b905080838252602082019050602084028301858111156120a5576120a4611f4f565b5b835b818110156120ce57806120ba888261205a565b8452602084019350506020810190506120a7565b5050509392505050565b600082601f8301126120ed576120ec611e92565b5b81356120fd84826020860161206f565b91505092915050565b600080fd5b600067ffffffffffffffff82111561212657612125611ea8565b5b61212f82611e97565b9050602081019050919050565b82818337600083830152505050565b600061215e6121598461210b565b611f08565b90508281526020810184848401111561217a57612179612106565b5b61218584828561213c565b509392505050565b600082601f8301126121a2576121a1611e92565b5b81356121b284826020860161214b565b91505092915050565b600080600080608085870312156121d5576121d4611e88565b5b600085013567ffffffffffffffff8111156121f3576121f2611e8d565b5b6121ff87828801611fe9565b945050602085013567ffffffffffffffff8111156122205761221f611e8d565b5b61222c878288016120d8565b935050604085013567ffffffffffffffff81111561224d5761224c611e8d565b5b6122598782880161218d565b925050606061226a87828801611f6b565b91505092959194509250565b600081519050919050565b600082825260208201905092915050565b60005b838110156122b0578082015181840152602081019050612295565b838111156122bf576000848401525b50505050565b60006122d082612276565b6122da8185612281565b93506122ea818560208601612292565b6122f381611e97565b840191505092915050565b600081519050919050565b600082825260208201905092915050565b6000819050602082019050919050565b61233381611e25565b82525050565b6000612345838361232a565b60208301905092915050565b6000602082019050919050565b6000612369826122fe565b6123738185612309565b935061237e8361231a565b8060005b838110156123af5781516123968882612339565b97506123a183612351565b925050600181019050612382565b5085935050505092915050565b600081519050919050565b600082825260208201905092915050565b6000819050602082019050919050565b6123f181611c44565b82525050565b600061240383836123e8565b60208301905092915050565b6000602082019050919050565b6000612427826123bc565b61243181856123c7565b935061243c836123d8565b8060005b8381101561246d57815161245488826123f7565b975061245f8361240f565b925050600181019050612440565b5085935050505092915050565b60008115159050919050565b61248f8161247a565b82525050565b600060a08301600083015184820360008601526124b282826122c5565b915050602083015184820360208601526124cc828261235e565b915050604083015184820360408601526124e6828261241c565b91505060608301516124fb6060860182612486565b50608083015161250e60808601826123e8565b508091505092915050565b600060208201905081810360008301526125338184612495565b905092915050565b60006020820190506125506000830184611e46565b92915050565b600081519050919050565b600082825260208201905092915050565b6000819050602082019050919050565b600060808301600083015161259a600086018261232a565b5060208301516125ad602086018261232a565b50604083015184820360408601526125c582826122c5565b91505060608301516125da60608601826123e8565b508091505092915050565b60006125f18383612582565b905092915050565b6000602082019050919050565b600061261182612556565b61261b8185612561565b93508360208202850161262d85612572565b8060005b85811015612669578484038952815161264a85826125e5565b9450612655836125f9565b925060208a01995050600181019050612631565b50829750879550505050505092915050565b600060208201905081810360008301526126958184612606565b905092915050565b60006020820190506126b26000830184611e37565b92915050565b6126c18161247a565b82525050565b60006020820190506126dc60008301846126b8565b92915050565b600082825260208201905092915050565b7f464f5242494444454e2043414c4c000000000000000000000000000000000000600082015250565b6000612729600e836126e2565b9150612734826126f3565b602082019050919050565b600060208201905081810360008301526127588161271c565b9050919050565b7f6163636573732064656e69656400000000000000000000000000000000000000600082015250565b6000612795600d836126e2565b91506127a08261275f565b602082019050919050565b600060208201905081810360008301526127c481612788565b9050919050565b7f4f776e61626c653a2063616c6c6572206973206e6f7420746865206f776e6572600082015250565b60006128016020836126e2565b915061280c826127cb565b602082019050919050565b60006020820190508181036000830152612830816127f4565b905091905056fea26469706673582212202322a4b664ab03bd5cb5a08f815051d65bdc710f0de4407263bc5f0247f067ca64736f6c634300080a0033",
  "immutableReferences": {},
  "source": "// SPDX-License-Identifier: MIT\r\npragma solidity ^0.8.0;\r\nimport \"./interfaces/IInstantWallet.sol\";\r\nimport \"./access/Ownable.sol\";\r\n\r\ncontract InstantWallet is IInstantWallet, Ownable {\r\n    Transaction[] Transactions;\r\n\r\n    mapping(address => wallets) walletslist;\r\n    \r\n    event Transfer(address _from, uint256 _amount);\r\n\r\n    \r\n    address Factory;\r\n\r\n    constructor(){\r\n        Factory = msg.sender;\r\n    }\r\n\r\n    /**\r\n     * @dev Initializes the InstantWallet contract with the provided parameters.\r\n     * @param _walletlist The list of wallet addresses to be whitelisted.\r\n     * @param _percent The corresponding percentages for each wallet address.\r\n     * @param _name The name of the wallet.\r\n     * @param _owner The address of the owner of the wallet.\r\n     */\r\n    function Initialize(\r\n        address[] memory _walletlist,\r\n        uint256[] memory _percent,\r\n        string memory _name,\r\n        address _owner\r\n    ) external {\r\n        require(msg.sender == Factory, \"FORBIDDEN CALL\");\r\n        setOwner(_owner);\r\n        whitelist[owner()] = true;\r\n        for (uint256 index = 0; index < _walletlist.length; index++) {\r\n            whitelist[_walletlist[index]] = true;\r\n        }\r\n        walletslist[owner()] = wallets(_name, _walletlist, _percent, false, 0);\r\n    }\r\n\r\n    function getWallet()\r\n        public\r\n        view\r\n        onlyShares\r\n        returns (wallets memory _wallets)\r\n    {\r\n        return walletslist[owner()];\r\n    }\r\n\r\n    function getTransactionsCount() public view returns (uint256 _count) {\r\n        return Transactions.length;\r\n    }\r\n\r\n    function getTransactions()\r\n        public\r\n        view\r\n        returns (Transaction[] memory _transactions)\r\n    {\r\n        return Transactions;\r\n    }\r\n\r\n    function stop() public onlyOwner {\r\n        wallets memory cwallet = walletslist[owner()];\r\n        cwallet._status = true;\r\n        walletslist[owner()] = cwallet;\r\n    }\r\n\r\n    function start() public onlyOwner {\r\n        wallets memory cwallet = walletslist[owner()];\r\n        cwallet._status = false;\r\n        walletslist[owner()] = cwallet;\r\n    }\r\n\r\n    function getStopStatus() public view returns (bool _stop) {\r\n        return walletslist[owner()]._status;\r\n    }\r\n\r\n    receive() external payable {\r\n        uint256 amount = msg.value;\r\n        bool _stoped = walletslist[owner()]._status;\r\n        address _sender = msg.sender;\r\n        wallets memory cwallet = walletslist[owner()];\r\n        cwallet._total += amount;\r\n\r\n        Transactions.push(Transaction(_sender, address(this), \"IN\", amount));\r\n        walletslist[owner()] = cwallet;\r\n\r\n        //Check if contract stop then all amount sent to owner;\r\n        if (!_stoped) {\r\n            for (\r\n                uint256 index = 0;\r\n                index < walletslist[owner()]._list.length;\r\n                index++\r\n            ) {\r\n                payable(walletslist[owner()]._list[index]).transfer(\r\n                    (amount * walletslist[owner()]._percent[index]) / 100\r\n                );\r\n\r\n                Transactions.push(\r\n                    Transaction(\r\n                        address(this),\r\n                        walletslist[owner()]._list[index],\r\n                        \"OUT\",\r\n                        (amount * walletslist[owner()]._percent[index]) / 100\r\n                    )\r\n                );\r\n            }\r\n            emit Transfer(_sender, amount);\r\n        } else {\r\n            payable(owner()).transfer(amount);\r\n            Transactions.push(\r\n                Transaction(address(this), owner(), \"OUT\", amount)\r\n            );\r\n        }\r\n    }\r\n}\r\n",
  "sourcePath": "D:\\NewProjects\\ProRata Wallet\\Front\\contracts\\InstantWallet.sol",
  "compiler": {
    "name": "solc",
    "version": "0.8.10+commit.fc410830.Emscripten.clang"
  },
  "schemaVersion": "3.4.4",
  "updatedAt": "2024-01-04T16:36:41.759Z",
  "devdoc": {
    "kind": "dev",
    "methods": {
      "Initialize(address[],uint256[],string,address)": {
        "details": "Initializes the InstantWallet contract with the provided parameters.",
        "params": {
          "_name": "The name of the wallet.",
          "_owner": "The address of the owner of the wallet.",
          "_percent": "The corresponding percentages for each wallet address.",
          "_walletlist": "The list of wallet addresses to be whitelisted."
        }
      }
    },
    "version": 1
  },
  "userdoc": {
    "kind": "user",
    "methods": {},
    "version": 1
  }
}