{
  "contractName": "NullWallet",
  "abi": [
    {
      "inputs": [],
      "stateMutability": "nonpayable",
      "type": "constructor"
    },
    {
      "inputs": [
        {
          "internalType": "address",
          "name": "_reciever",
          "type": "address"
        },
        {
          "internalType": "address",
          "name": "_owner",
          "type": "address"
        }
      ],
      "name": "Initialize",
      "outputs": [],
      "stateMutability": "nonpayable",
      "type": "function"
    },
    {
      "inputs": [
        {
          "internalType": "address",
          "name": "_token",
          "type": "address"
        }
      ],
      "name": "Withdraw",
      "outputs": [],
      "stateMutability": "nonpayable",
      "type": "function"
    }
  ],
  "bytecode": "0x60806040526000600360006101000a81548173ffffffffffffffffffffffffffffffffffffffff021916908373ffffffffffffffffffffffffffffffffffffffff16021790555034801561005257600080fd5b50336000806101000a81548173ffffffffffffffffffffffffffffffffffffffff021916908373ffffffffffffffffffffffffffffffffffffffff16021790555061045b806100a26000396000f3fe608060405234801561001057600080fd5b50600436106100365760003560e01c8063dc90fed01461003b578063f676115114610057575b600080fd5b6100556004803603810190610050919061033b565b610073565b005b610071600480360381019061006c919061037b565b610187565b005b60008054906101000a900473ffffffffffffffffffffffffffffffffffffffff1673ffffffffffffffffffffffffffffffffffffffff163373ffffffffffffffffffffffffffffffffffffffff1614610101576040517f08c379a00000000000000000000000000000000000000000000000000000000081526004016100f890610405565b60405180910390fd5b81600160006101000a81548173ffffffffffffffffffffffffffffffffffffffff021916908373ffffffffffffffffffffffffffffffffffffffff16021790555080600260006101000a81548173ffffffffffffffffffffffffffffffffffffffff021916908373ffffffffffffffffffffffffffffffffffffffff1602179055505050565b60008054906101000a900473ffffffffffffffffffffffffffffffffffffffff1673ffffffffffffffffffffffffffffffffffffffff163373ffffffffffffffffffffffffffffffffffffffff1614610215576040517f08c379a000000000000000000000000000000000000000000000000000000000815260040161020c90610405565b60405180910390fd5b600360009054906101000a900473ffffffffffffffffffffffffffffffffffffffff1673ffffffffffffffffffffffffffffffffffffffff168173ffffffffffffffffffffffffffffffffffffffff1614156102d557600160009054906101000a900473ffffffffffffffffffffffffffffffffffffffff1673ffffffffffffffffffffffffffffffffffffffff166108fc479081150290604051600060405180830381858888f193505050501580156102d3573d6000803e3d6000fd5b505b50565b600080fd5b600073ffffffffffffffffffffffffffffffffffffffff82169050919050565b6000610308826102dd565b9050919050565b610318816102fd565b811461032357600080fd5b50565b6000813590506103358161030f565b92915050565b60008060408385031215610352576103516102d8565b5b600061036085828601610326565b925050602061037185828601610326565b9150509250929050565b600060208284031215610391576103906102d8565b5b600061039f84828501610326565b91505092915050565b600082825260208201905092915050565b7f466f7262696464656e2063616c6c000000000000000000000000000000000000600082015250565b60006103ef600e836103a8565b91506103fa826103b9565b602082019050919050565b6000602082019050818103600083015261041e816103e2565b905091905056fea2646970667358221220521e0c44b2bd78f649cc724d3e4c96c98ba4ba9bc19711fadd23a7c7a844a75864736f6c634300080a0033",
  "immutableReferences": {},
  "source": "// SPDX-License-Identifier: MIT\r\npragma solidity ^0.8.10;\r\n\r\nimport './interfaces/INullWallet.sol';\r\n\r\ncontract NullWallet is INullWallet {\r\n\r\n    address Factory;\r\n    address payable reciever;\r\n    address owner;\r\n    address NATIVE = 0x0000000000000000000000000000000000000000;\r\n    \r\n\r\n    constructor ()  {\r\n            Factory = msg.sender;\r\n    }\r\n\r\n    function Initialize(address _reciever, address _owner) public {\r\n        require(msg.sender == Factory,'Forbidden call');\r\n        reciever = payable(_reciever);\r\n        owner = _owner;\r\n    }\r\n\r\n    function Withdraw(address _token)  external {\r\n        require(msg.sender == Factory,'Forbidden call');\r\n        if (_token == NATIVE) {\r\n            reciever.transfer(address(this).balance);\r\n        }\r\n\r\n    }\r\n\r\n    \r\n\r\n\r\n\r\n}",
  "sourcePath": "D:\\NewProjects\\ProRata Wallet\\Front\\contracts\\NullWallet.sol",
  "compiler": {
    "name": "solc",
    "version": "0.8.10+commit.fc410830.Emscripten.clang"
  },
  "schemaVersion": "3.4.4",
  "updatedAt": "2024-01-04T16:36:41.766Z",
  "devdoc": {
    "kind": "dev",
    "methods": {},
    "version": 1
  },
  "userdoc": {
    "kind": "user",
    "methods": {},
    "version": 1
  }
}