{
  "contractName": "ProRataFactory",
  "abi": [
    {
      "inputs": [],
      "name": "AllWalletsCount",
      "outputs": [
        {
          "internalType": "uint256",
          "name": "",
          "type": "uint256"
        }
      ],
      "stateMutability": "view",
      "type": "function",
      "constant": true
    },
    {
      "inputs": [
        {
          "internalType": "address",
          "name": "_creator",
          "type": "address"
        },
        {
          "internalType": "address",
          "name": "_reciever",
          "type": "address"
        },
        {
          "internalType": "string",
          "name": "_password",
          "type": "string"
        },
        {
          "internalType": "uint256",
          "name": "_serial",
          "type": "uint256"
        }
      ],
      "name": "getAddress",
      "outputs": [
        {
          "internalType": "address",
          "name": "",
          "type": "address"
        }
      ],
      "stateMutability": "view",
      "type": "function",
      "constant": true
    },
    {
      "inputs": [
        {
          "internalType": "address",
          "name": "_reciever",
          "type": "address"
        },
        {
          "internalType": "string",
          "name": "_password",
          "type": "string"
        },
        {
          "internalType": "uint256",
          "name": "_serial",
          "type": "uint256"
        }
      ],
      "name": "createNullWallet",
      "outputs": [],
      "stateMutability": "nonpayable",
      "type": "function"
    },
    {
      "inputs": [
        {
          "internalType": "address",
          "name": "_walletAddress",
          "type": "address"
        },
        {
          "internalType": "address",
          "name": "_token",
          "type": "address"
        }
      ],
      "name": "WithdrawFromNullWallet",
      "outputs": [],
      "stateMutability": "nonpayable",
      "type": "function"
    },
    {
      "inputs": [
        {
          "internalType": "address[]",
          "name": "_walletlist",
          "type": "address[]"
        },
        {
          "internalType": "uint256[]",
          "name": "_percent",
          "type": "uint256[]"
        },
        {
          "internalType": "string",
          "name": "_name",
          "type": "string"
        }
      ],
      "name": "createInstantWallet",
      "outputs": [
        {
          "internalType": "address",
          "name": "_newWallet",
          "type": "address"
        }
      ],
      "stateMutability": "nonpayable",
      "type": "function"
    },
    {
      "inputs": [],
      "name": "getSharedWallets",
      "outputs": [
        {
          "internalType": "address[]",
          "name": "_wallets",
          "type": "address[]"
        }
      ],
      "stateMutability": "view",
      "type": "function",
      "constant": true
    },
    {
      "inputs": [],
      "name": "getUserWalletsCount",
      "outputs": [
        {
          "internalType": "uint256",
          "name": "_count",
          "type": "uint256"
        }
      ],
      "stateMutability": "view",
      "type": "function",
      "constant": true
    },
    {
      "inputs": [],
      "name": "getUserWallets",
      "outputs": [
        {
          "components": [
            {
              "internalType": "string",
              "name": "_name",
              "type": "string"
            },
            {
              "internalType": "address",
              "name": "_address",
              "type": "address"
            },
            {
              "internalType": "string",
              "name": "_type",
              "type": "string"
            }
          ],
          "internalType": "struct IProRataFactory.Wallet[]",
          "name": "_wallets",
          "type": "tuple[]"
        }
      ],
      "stateMutability": "view",
      "type": "function",
      "constant": true
    }
  ],
  "bytecode": "0x6080604052600060035534801561001557600080fd5b50614cf4806100256000396000f3fe608060405234801561001057600080fd5b50600436106100885760003560e01c80638799f26e1161005b5780638799f26e14610105578063afb472ca14610135578063ed721bfd14610165578063f28059c41461018157610088565b80632c872b421461008d578063651cfef4146100ab57806368e170a8146100c95780637cb3455f146100e7575b600080fd5b61009561019d565b6040516100a29190610ef8565b60405180910390f35b6100b36101e6565b6040516100c09190610ef8565b60405180910390f35b6100d16101ec565b6040516100de9190611106565b60405180910390f35b6100ef610401565b6040516100fc91906111d7565b60405180910390f35b61011f600480360381019061011a9190611525565b6104cc565b60405161012c91906115db565b60405180910390f35b61014f600480360381019061014a91906115f6565b610a69565b60405161015c91906115db565b60405180910390f35b61017f600480360381019061017a9190611679565b610b10565b005b61019b600480360381019061019691906116b9565b610c0b565b005b60008060003373ffffffffffffffffffffffffffffffffffffffff1673ffffffffffffffffffffffffffffffffffffffff16815260200190815260200160002080549050905090565b60035481565b60606000803373ffffffffffffffffffffffffffffffffffffffff1673ffffffffffffffffffffffffffffffffffffffff168152602001908152602001600020805480602002602001604051908101604052809291908181526020016000905b828210156103f8578382906000526020600020906003020160405180606001604052908160008201805461027f90611757565b80601f01602080910402602001604051908101604052809291908181526020018280546102ab90611757565b80156102f85780601f106102cd576101008083540402835291602001916102f8565b820191906000526020600020905b8154815290600101906020018083116102db57829003601f168201915b505050505081526020016001820160009054906101000a900473ffffffffffffffffffffffffffffffffffffffff1673ffffffffffffffffffffffffffffffffffffffff1673ffffffffffffffffffffffffffffffffffffffff16815260200160028201805461036790611757565b80601f016020809104026020016040519081016040528092919081815260200182805461039390611757565b80156103e05780601f106103b5576101008083540402835291602001916103e0565b820191906000526020600020905b8154815290600101906020018083116103c357829003601f168201915b5050505050815250508152602001906001019061024c565b50505050905090565b6060600160003373ffffffffffffffffffffffffffffffffffffffff1673ffffffffffffffffffffffffffffffffffffffff1681526020019081526020016000208054806020026020016040519081016040528092919081815260200182805480156104c257602002820191906000526020600020905b8160009054906101000a900473ffffffffffffffffffffffffffffffffffffffff1673ffffffffffffffffffffffffffffffffffffffff1681526020019060010190808311610478575b5050505050905090565b60008033905060008060009050855187511461051d576040517f08c379a0000000000000000000000000000000000000000000000000000000008152600401610514906117e6565b60405180910390fd5b6000875111610561576040517f08c379a000000000000000000000000000000000000000000000000000000000815260040161055890611852565b60405180910390fd5b60008551116105a5576040517f08c379a000000000000000000000000000000000000000000000000000000000815260040161059c906118be565b60405180910390fd5b60005b875181101561064e57600073ffffffffffffffffffffffffffffffffffffffff168882815181106105dc576105db6118de565b5b602002602001015173ffffffffffffffffffffffffffffffffffffffff16141561063b576040517f08c379a0000000000000000000000000000000000000000000000000000000008152600401610632906117e6565b60405180910390fd5b80806106469061193c565b9150506105a8565b5060005b86518110156106f35760008782815181106106705761066f6118de565b5b6020026020010151116106b8576040517f08c379a00000000000000000000000000000000000000000000000000000000081526004016106af906119d1565b60405180910390fd5b8681815181106106cb576106ca6118de565b5b6020026020010151826106de91906119f1565b915080806106eb9061193c565b915050610652565b5060648114610737576040517f08c379a000000000000000000000000000000000000000000000000000000000815260040161072e90611a93565b60405180910390fd5b60006040518060200161074990610e22565b6020820181038252601f19601f8201166040525090506000866003548660405160200161077893929190611b58565b604051602081830303815290604052805190602001209050808251602084016000f59350833b6107a757600080fd5b8373ffffffffffffffffffffffffffffffffffffffff16630a77ef408a8a8a896040518563ffffffff1660e01b81526004016107e69493929190611c88565b600060405180830381600087803b15801561080057600080fd5b505af1158015610814573d6000803e3d6000fd5b505050506000803373ffffffffffffffffffffffffffffffffffffffff1673ffffffffffffffffffffffffffffffffffffffff16815260200190815260200160002060405180606001604052808981526020018673ffffffffffffffffffffffffffffffffffffffff1681526020016040518060400160405280600781526020017f696e7374616e740000000000000000000000000000000000000000000000000081525081525090806001815401808255809150506001900390600052602060002090600302016000909190919091506000820151816000019080519060200190610901929190610e2f565b5060208201518160010160006101000a81548173ffffffffffffffffffffffffffffffffffffffff021916908373ffffffffffffffffffffffffffffffffffffffff1602179055506040820151816002019080519060200190610965929190610e2f565b50505060005b8951811015610a4157600160008b838151811061098b5761098a6118de565b5b602002602001015173ffffffffffffffffffffffffffffffffffffffff1673ffffffffffffffffffffffffffffffffffffffff168152602001908152602001600020859080600181540180825580915050600190039060005260206000200160009091909190916101000a81548173ffffffffffffffffffffffffffffffffffffffff021916908373ffffffffffffffffffffffffffffffffffffffff1602179055508080610a399061193c565b91505061096b565b5060036000815480929190610a559061193c565b919050555083955050505050509392505050565b60008060405180602001610a7c90610eb5565b6020820181038252601f19601f820116604052509050600085858589604051602001610aab9493929190611ce2565b604051602081830303815290604052805190602001209050600060ff60f81b30838580519060200120604051602001610ae79493929190611da4565b6040516020818303038152906040528051906020012090508060001c9350505050949350505050565b600260008373ffffffffffffffffffffffffffffffffffffffff1673ffffffffffffffffffffffffffffffffffffffff16815260200190815260200160002060009054906101000a900460ff16610b9c576040517f08c379a0000000000000000000000000000000000000000000000000000000008152600401610b9390611e3e565b60405180910390fd5b8173ffffffffffffffffffffffffffffffffffffffff1663f6761151826040518263ffffffff1660e01b8152600401610bd591906115db565b600060405180830381600087803b158015610bef57600080fd5b505af1158015610c03573d6000803e3d6000fd5b505050505050565b600080339050600060405180602001610c2390610eb5565b6020820181038252601f19601f820116604052509050600086868685604051602001610c529493929190611ce2565b604051602081830303815290604052805190602001209050600060ff60f81b30838580519060200120604051602001610c8e9493929190611da4565b60405160208183030381529060405280519060200120905060008160001c9050600260008273ffffffffffffffffffffffffffffffffffffffff1673ffffffffffffffffffffffffffffffffffffffff16815260200190815260200160002060009054906101000a900460ff1615610d3b576040517f08c379a0000000000000000000000000000000000000000000000000000000008152600401610d3290611eaa565b60405180910390fd5b828451602086016000f59550853b610d5257600080fd5b8573ffffffffffffffffffffffffffffffffffffffff1663dc90fed08a876040518363ffffffff1660e01b8152600401610d8d929190611eca565b600060405180830381600087803b158015610da757600080fd5b505af1158015610dbb573d6000803e3d6000fd5b505050506001600260008873ffffffffffffffffffffffffffffffffffffffff1673ffffffffffffffffffffffffffffffffffffffff16815260200190815260200160002060006101000a81548160ff021916908315150217905550505050505050505050565b6128ce80611ef483390190565b828054610e3b90611757565b90600052602060002090601f016020900481019282610e5d5760008555610ea4565b82601f10610e7657805160ff1916838001178555610ea4565b82800160010185558215610ea4579182015b82811115610ea3578251825591602001919060010190610e88565b5b509050610eb19190610ec2565b5090565b6104fd806147c283390190565b5b80821115610edb576000816000905550600101610ec3565b5090565b6000819050919050565b610ef281610edf565b82525050565b6000602082019050610f0d6000830184610ee9565b92915050565b600081519050919050565b600082825260208201905092915050565b6000819050602082019050919050565b600081519050919050565b600082825260208201905092915050565b60005b83811015610f79578082015181840152602081019050610f5e565b83811115610f88576000848401525b50505050565b6000601f19601f8301169050919050565b6000610faa82610f3f565b610fb48185610f4a565b9350610fc4818560208601610f5b565b610fcd81610f8e565b840191505092915050565b600073ffffffffffffffffffffffffffffffffffffffff82169050919050565b600061100382610fd8565b9050919050565b61101381610ff8565b82525050565b600060608301600083015184820360008601526110368282610f9f565b915050602083015161104b602086018261100a565b50604083015184820360408601526110638282610f9f565b9150508091505092915050565b600061107c8383611019565b905092915050565b6000602082019050919050565b600061109c82610f13565b6110a68185610f1e565b9350836020820285016110b885610f2f565b8060005b858110156110f457848403895281516110d58582611070565b94506110e083611084565b925060208a019950506001810190506110bc565b50829750879550505050505092915050565b600060208201905081810360008301526111208184611091565b905092915050565b600081519050919050565b600082825260208201905092915050565b6000819050602082019050919050565b6000611160838361100a565b60208301905092915050565b6000602082019050919050565b600061118482611128565b61118e8185611133565b935061119983611144565b8060005b838110156111ca5781516111b18882611154565b97506111bc8361116c565b92505060018101905061119d565b5085935050505092915050565b600060208201905081810360008301526111f18184611179565b905092915050565b6000604051905090565b600080fd5b600080fd5b600080fd5b7f4e487b7100000000000000000000000000000000000000000000000000000000600052604160045260246000fd5b61124a82610f8e565b810181811067ffffffffffffffff8211171561126957611268611212565b5b80604052505050565b600061127c6111f9565b90506112888282611241565b919050565b600067ffffffffffffffff8211156112a8576112a7611212565b5b602082029050602081019050919050565b600080fd5b6112c781610ff8565b81146112d257600080fd5b50565b6000813590506112e4816112be565b92915050565b60006112fd6112f88461128d565b611272565b905080838252602082019050602084028301858111156113205761131f6112b9565b5b835b81811015611349578061133588826112d5565b845260208401935050602081019050611322565b5050509392505050565b600082601f8301126113685761136761120d565b5b81356113788482602086016112ea565b91505092915050565b600067ffffffffffffffff82111561139c5761139b611212565b5b602082029050602081019050919050565b6113b681610edf565b81146113c157600080fd5b50565b6000813590506113d3816113ad565b92915050565b60006113ec6113e784611381565b611272565b9050808382526020820190506020840283018581111561140f5761140e6112b9565b5b835b81811015611438578061142488826113c4565b845260208401935050602081019050611411565b5050509392505050565b600082601f8301126114575761145661120d565b5b81356114678482602086016113d9565b91505092915050565b600080fd5b600067ffffffffffffffff8211156114905761148f611212565b5b61149982610f8e565b9050602081019050919050565b82818337600083830152505050565b60006114c86114c384611475565b611272565b9050828152602081018484840111156114e4576114e3611470565b5b6114ef8482856114a6565b509392505050565b600082601f83011261150c5761150b61120d565b5b813561151c8482602086016114b5565b91505092915050565b60008060006060848603121561153e5761153d611203565b5b600084013567ffffffffffffffff81111561155c5761155b611208565b5b61156886828701611353565b935050602084013567ffffffffffffffff81111561158957611588611208565b5b61159586828701611442565b925050604084013567ffffffffffffffff8111156115b6576115b5611208565b5b6115c2868287016114f7565b9150509250925092565b6115d581610ff8565b82525050565b60006020820190506115f060008301846115cc565b92915050565b600080600080608085870312156116105761160f611203565b5b600061161e878288016112d5565b945050602061162f878288016112d5565b935050604085013567ffffffffffffffff8111156116505761164f611208565b5b61165c878288016114f7565b925050606061166d878288016113c4565b91505092959194509250565b600080604083850312156116905761168f611203565b5b600061169e858286016112d5565b92505060206116af858286016112d5565b9150509250929050565b6000806000606084860312156116d2576116d1611203565b5b60006116e0868287016112d5565b935050602084013567ffffffffffffffff81111561170157611700611208565b5b61170d868287016114f7565b925050604061171e868287016113c4565b9150509250925092565b7f4e487b7100000000000000000000000000000000000000000000000000000000600052602260045260246000fd5b6000600282049050600182168061176f57607f821691505b6020821081141561178357611782611728565b5b50919050565b600082825260208201905092915050565b7f496e76616c696420496e70757400000000000000000000000000000000000000600082015250565b60006117d0600d83611789565b91506117db8261179a565b602082019050919050565b600060208201905081810360008301526117ff816117c3565b9050919050565b7f496e76616c69642077616c6c6574206c697374206c656e677468000000000000600082015250565b600061183c601a83611789565b915061184782611806565b602082019050919050565b6000602082019050818103600083015261186b8161182f565b9050919050565b7f496e76616c6964206e616d65206c656e67746800000000000000000000000000600082015250565b60006118a8601383611789565b91506118b382611872565b602082019050919050565b600060208201905081810360008301526118d78161189b565b9050919050565b7f4e487b7100000000000000000000000000000000000000000000000000000000600052603260045260246000fd5b7f4e487b7100000000000000000000000000000000000000000000000000000000600052601160045260246000fd5b600061194782610edf565b91507fffffffffffffffffffffffffffffffffffffffffffffffffffffffffffffffff82141561197a5761197961190d565b5b600182019050919050565b7f50657263656e74206d7573742062652067726561746572207468616e20300000600082015250565b60006119bb601e83611789565b91506119c682611985565b602082019050919050565b600060208201905081810360008301526119ea816119ae565b9050919050565b60006119fc82610edf565b9150611a0783610edf565b9250827fffffffffffffffffffffffffffffffffffffffffffffffffffffffffffffffff03821115611a3c57611a3b61190d565b5b828201905092915050565b7f546f74616c2050657263656e74206d7573742062652031303000000000000000600082015250565b6000611a7d601983611789565b9150611a8882611a47565b602082019050919050565b60006020820190508181036000830152611aac81611a70565b9050919050565b600081905092915050565b6000611ac982610f3f565b611ad38185611ab3565b9350611ae3818560208601610f5b565b80840191505092915050565b6000819050919050565b611b0a611b0582610edf565b611aef565b82525050565b60008160601b9050919050565b6000611b2882611b10565b9050919050565b6000611b3a82611b1d565b9050919050565b611b52611b4d82610ff8565b611b2f565b82525050565b6000611b648286611abe565b9150611b708285611af9565b602082019150611b808284611b41565b601482019150819050949350505050565b600081519050919050565b600082825260208201905092915050565b6000819050602082019050919050565b611bc681610edf565b82525050565b6000611bd88383611bbd565b60208301905092915050565b6000602082019050919050565b6000611bfc82611b91565b611c068185611b9c565b9350611c1183611bad565b8060005b83811015611c42578151611c298882611bcc565b9750611c3483611be4565b925050600181019050611c15565b5085935050505092915050565b6000611c5a82610f3f565b611c648185611789565b9350611c74818560208601610f5b565b611c7d81610f8e565b840191505092915050565b60006080820190508181036000830152611ca28187611179565b90508181036020830152611cb68186611bf1565b90508181036040830152611cca8185611c4f565b9050611cd960608301846115cc565b95945050505050565b6000611cee8287611b41565b601482019150611cfe8286611abe565b9150611d0a8285611af9565b602082019150611d1a8284611b41565b60148201915081905095945050505050565b60007fff0000000000000000000000000000000000000000000000000000000000000082169050919050565b6000819050919050565b611d73611d6e82611d2c565b611d58565b82525050565b6000819050919050565b6000819050919050565b611d9e611d9982611d79565b611d83565b82525050565b6000611db08287611d62565b600182019150611dc08286611b41565b601482019150611dd08285611d8d565b602082019150611de08284611d8d565b60208201915081905095945050505050565b7f57616c6c6574206e6f7420496e697469616c697a656400000000000000000000600082015250565b6000611e28601683611789565b9150611e3382611df2565b602082019050919050565b60006020820190508181036000830152611e5781611e1b565b9050919050565b7f57616c6c657420496e697469616c697a6564206265666f726521000000000000600082015250565b6000611e94601a83611789565b9150611e9f82611e5e565b602082019050919050565b60006020820190508181036000830152611ec381611e87565b9050919050565b6000604082019050611edf60008301856115cc565b611eec60208301846115cc565b939250505056fe608060405234801561001057600080fd5b5033600460006101000a81548173ffffffffffffffffffffffffffffffffffffffff021916908373ffffffffffffffffffffffffffffffffffffffff16021790555061286d806100616000396000f3fe60806040526004361061007f5760003560e01c806383920e901161004e57806383920e9014610bd95780638da5cb5b14610c04578063be9a655514610c2f578063dd45c9b814610c4657610b3e565b806307da68f514610b435780630a77ef4014610b5a5780631329960414610b83578063578cb8f914610bae57610b3e565b36610b3e576000349050600060036000610097610c71565b73ffffffffffffffffffffffffffffffffffffffff1673ffffffffffffffffffffffffffffffffffffffff16815260200190815260200160002060030160009054906101000a900460ff16905060003390506000600360006100f7610c71565b73ffffffffffffffffffffffffffffffffffffffff1673ffffffffffffffffffffffffffffffffffffffff1681526020019081526020016000206040518060a001604052908160008201805461014c90611c12565b80601f016020809104026020016040519081016040528092919081815260200182805461017890611c12565b80156101c55780601f1061019a576101008083540402835291602001916101c5565b820191906000526020600020905b8154815290600101906020018083116101a857829003601f168201915b505050505081526020016001820180548060200260200160405190810160405280929190818152602001828054801561025357602002820191906000526020600020905b8160009054906101000a900473ffffffffffffffffffffffffffffffffffffffff1673ffffffffffffffffffffffffffffffffffffffff1681526020019060010190808311610209575b50505050508152602001600282018054806020026020016040519081016040528092919081815260200182805480156102ab57602002820191906000526020600020905b815481526020019060010190808311610297575b505050505081526020016003820160009054906101000a900460ff16151515158152602001600482015481525050905083816080018181516102ed9190611c7d565b91508181525050600260405180608001604052808473ffffffffffffffffffffffffffffffffffffffff1681526020013073ffffffffffffffffffffffffffffffffffffffff1681526020016040518060400160405280600281526020017f494e000000000000000000000000000000000000000000000000000000000000815250815260200186815250908060018154018082558091505060019003906000526020600020906004020160009091909190915060008201518160000160006101000a81548173ffffffffffffffffffffffffffffffffffffffff021916908373ffffffffffffffffffffffffffffffffffffffff16021790555060208201518160010160006101000a81548173ffffffffffffffffffffffffffffffffffffffff021916908373ffffffffffffffffffffffffffffffffffffffff160217905550604082015181600201908051906020019061044b929190611a38565b506060820151816003015550508060036000610465610c71565b73ffffffffffffffffffffffffffffffffffffffff1673ffffffffffffffffffffffffffffffffffffffff16815260200190815260200160002060008201518160000190805190602001906104bb929190611a38565b5060208201518160010190805190602001906104d8929190611abe565b5060408201518160020190805190602001906104f5929190611b48565b5060608201518160030160006101000a81548160ff021916908315150217905550608082015181600401559050508261097e5760005b60036000610537610c71565b73ffffffffffffffffffffffffffffffffffffffff1673ffffffffffffffffffffffffffffffffffffffff1681526020019081526020016000206001018054905081101561093f576003600061058b610c71565b73ffffffffffffffffffffffffffffffffffffffff1673ffffffffffffffffffffffffffffffffffffffff16815260200190815260200160002060010181815481106105da576105d9611cd3565b5b9060005260206000200160009054906101000a900473ffffffffffffffffffffffffffffffffffffffff1673ffffffffffffffffffffffffffffffffffffffff166108fc60646003600061062c610c71565b73ffffffffffffffffffffffffffffffffffffffff1673ffffffffffffffffffffffffffffffffffffffff168152602001908152602001600020600201848154811061067b5761067a611cd3565b5b9060005260206000200154886106919190611d02565b61069b9190611d8b565b9081150290604051600060405180830381858888f193505050501580156106c6573d6000803e3d6000fd5b50600260405180608001604052803073ffffffffffffffffffffffffffffffffffffffff168152602001600360006106fc610c71565b73ffffffffffffffffffffffffffffffffffffffff1673ffffffffffffffffffffffffffffffffffffffff168152602001908152602001600020600101848154811061074b5761074a611cd3565b5b9060005260206000200160009054906101000a900473ffffffffffffffffffffffffffffffffffffffff1673ffffffffffffffffffffffffffffffffffffffff1681526020016040518060400160405280600381526020017f4f5554000000000000000000000000000000000000000000000000000000000081525081526020016064600360006107da610c71565b73ffffffffffffffffffffffffffffffffffffffff1673ffffffffffffffffffffffffffffffffffffffff168152602001908152602001600020600201858154811061082957610828611cd3565b5b90600052602060002001548961083f9190611d02565b6108499190611d8b565b815250908060018154018082558091505060019003906000526020600020906004020160009091909190915060008201518160000160006101000a81548173ffffffffffffffffffffffffffffffffffffffff021916908373ffffffffffffffffffffffffffffffffffffffff16021790555060208201518160010160006101000a81548173ffffffffffffffffffffffffffffffffffffffff021916908373ffffffffffffffffffffffffffffffffffffffff160217905550604082015181600201908051906020019061091f929190611a38565b50606082015181600301555050808061093790611dbc565b91505061052b565b507f69ca02dd4edd7bf0a4abb9ed3b7af3f14778db5d61921c7dc7cd545266326de28285604051610971929190611e55565b60405180910390a1610b38565b610986610c71565b73ffffffffffffffffffffffffffffffffffffffff166108fc859081150290604051600060405180830381858888f193505050501580156109cb573d6000803e3d6000fd5b50600260405180608001604052803073ffffffffffffffffffffffffffffffffffffffff1681526020016109fd610c71565b73ffffffffffffffffffffffffffffffffffffffff1681526020016040518060400160405280600381526020017f4f55540000000000000000000000000000000000000000000000000000000000815250815260200186815250908060018154018082558091505060019003906000526020600020906004020160009091909190915060008201518160000160006101000a81548173ffffffffffffffffffffffffffffffffffffffff021916908373ffffffffffffffffffffffffffffffffffffffff16021790555060208201518160010160006101000a81548173ffffffffffffffffffffffffffffffffffffffff021916908373ffffffffffffffffffffffffffffffffffffffff1602179055506040820151816002019080519060200190610b2a929190611a38565b506060820151816003015550505b50505050005b600080fd5b348015610b4f57600080fd5b50610b58610c9a565b005b348015610b6657600080fd5b50610b816004803603810190610b7c91906121bb565b610f73565b005b348015610b8f57600080fd5b50610b986111f6565b604051610ba59190612519565b60405180910390f35b348015610bba57600080fd5b50610bc3611484565b604051610bd0919061253b565b60405180910390f35b348015610be557600080fd5b50610bee611491565b604051610bfb919061267b565b60405180910390f35b348015610c1057600080fd5b50610c19610c71565b604051610c26919061269d565b60405180910390f35b348015610c3b57600080fd5b50610c44611638565b005b348015610c5257600080fd5b50610c5b611911565b604051610c6891906126c7565b60405180910390f35b60008060009054906101000a900473ffffffffffffffffffffffffffffffffffffffff16905090565b610ca261196f565b600060036000610cb0610c71565b73ffffffffffffffffffffffffffffffffffffffff1673ffffffffffffffffffffffffffffffffffffffff1681526020019081526020016000206040518060a0016040529081600082018054610d0590611c12565b80601f0160208091040260200160405190810160405280929190818152602001828054610d3190611c12565b8015610d7e5780601f10610d5357610100808354040283529160200191610d7e565b820191906000526020600020905b815481529060010190602001808311610d6157829003601f168201915b5050505050815260200160018201805480602002602001604051908101604052809291908181526020018280548015610e0c57602002820191906000526020600020905b8160009054906101000a900473ffffffffffffffffffffffffffffffffffffffff1673ffffffffffffffffffffffffffffffffffffffff1681526020019060010190808311610dc2575b5050505050815260200160028201805480602002602001604051908101604052809291908181526020018280548015610e6457602002820191906000526020600020905b815481526020019060010190808311610e50575b505050505081526020016003820160009054906101000a900460ff16151515158152602001600482015481525050905060018160600190151590811515815250508060036000610eb2610c71565b73ffffffffffffffffffffffffffffffffffffffff1673ffffffffffffffffffffffffffffffffffffffff1681526020019081526020016000206000820151816000019080519060200190610f08929190611a38565b506020820151816001019080519060200190610f25929190611abe565b506040820151816002019080519060200190610f42929190611b48565b5060608201518160030160006101000a81548160ff0219169083151502179055506080820151816004015590505050565b600460009054906101000a900473ffffffffffffffffffffffffffffffffffffffff1673ffffffffffffffffffffffffffffffffffffffff163373ffffffffffffffffffffffffffffffffffffffff1614611003576040517f08c379a0000000000000000000000000000000000000000000000000000000008152600401610ffa9061273f565b60405180910390fd5b61100c816119ed565b6001806000611019610c71565b73ffffffffffffffffffffffffffffffffffffffff1673ffffffffffffffffffffffffffffffffffffffff16815260200190815260200160002060006101000a81548160ff02191690831515021790555060005b84518110156110fa57600180600087848151811061108e5761108d611cd3565b5b602002602001015173ffffffffffffffffffffffffffffffffffffffff1673ffffffffffffffffffffffffffffffffffffffff16815260200190815260200160002060006101000a81548160ff02191690831515021790555080806110f290611dbc565b91505061106d565b506040518060a00160405280838152602001858152602001848152602001600015158152602001600081525060036000611132610c71565b73ffffffffffffffffffffffffffffffffffffffff1673ffffffffffffffffffffffffffffffffffffffff1681526020019081526020016000206000820151816000019080519060200190611188929190611a38565b5060208201518160010190805190602001906111a5929190611abe565b5060408201518160020190805190602001906111c2929190611b48565b5060608201518160030160006101000a81548160ff0219169083151502179055506080820151816004015590505050505050565b6111fe611b95565b6001600061120a611a30565b73ffffffffffffffffffffffffffffffffffffffff1673ffffffffffffffffffffffffffffffffffffffff16815260200190815260200160002060009054906101000a900460ff16611291576040517f08c379a0000000000000000000000000000000000000000000000000000000008152600401611288906127ab565b60405180910390fd5b6003600061129d610c71565b73ffffffffffffffffffffffffffffffffffffffff1673ffffffffffffffffffffffffffffffffffffffff1681526020019081526020016000206040518060a00160405290816000820180546112f290611c12565b80601f016020809104026020016040519081016040528092919081815260200182805461131e90611c12565b801561136b5780601f106113405761010080835404028352916020019161136b565b820191906000526020600020905b81548152906001019060200180831161134e57829003601f168201915b50505050508152602001600182018054806020026020016040519081016040528092919081815260200182805480156113f957602002820191906000526020600020905b8160009054906101000a900473ffffffffffffffffffffffffffffffffffffffff1673ffffffffffffffffffffffffffffffffffffffff16815260200190600101908083116113af575b505050505081526020016002820180548060200260200160405190810160405280929190818152602001828054801561145157602002820191906000526020600020905b81548152602001906001019080831161143d575b505050505081526020016003820160009054906101000a900460ff16151515158152602001600482015481525050905090565b6000600280549050905090565b60606002805480602002602001604051908101604052809291908181526020016000905b8282101561162f57838290600052602060002090600402016040518060800160405290816000820160009054906101000a900473ffffffffffffffffffffffffffffffffffffffff1673ffffffffffffffffffffffffffffffffffffffff1673ffffffffffffffffffffffffffffffffffffffff1681526020016001820160009054906101000a900473ffffffffffffffffffffffffffffffffffffffff1673ffffffffffffffffffffffffffffffffffffffff1673ffffffffffffffffffffffffffffffffffffffff16815260200160028201805461159490611c12565b80601f01602080910402602001604051908101604052809291908181526020018280546115c090611c12565b801561160d5780601f106115e25761010080835404028352916020019161160d565b820191906000526020600020905b8154815290600101906020018083116115f057829003601f168201915b50505050508152602001600382015481525050815260200190600101906114b5565b50505050905090565b61164061196f565b60006003600061164e610c71565b73ffffffffffffffffffffffffffffffffffffffff1673ffffffffffffffffffffffffffffffffffffffff1681526020019081526020016000206040518060a00160405290816000820180546116a390611c12565b80601f01602080910402602001604051908101604052809291908181526020018280546116cf90611c12565b801561171c5780601f106116f15761010080835404028352916020019161171c565b820191906000526020600020905b8154815290600101906020018083116116ff57829003601f168201915b50505050508152602001600182018054806020026020016040519081016040528092919081815260200182805480156117aa57602002820191906000526020600020905b8160009054906101000a900473ffffffffffffffffffffffffffffffffffffffff1673ffffffffffffffffffffffffffffffffffffffff1681526020019060010190808311611760575b505050505081526020016002820180548060200260200160405190810160405280929190818152602001828054801561180257602002820191906000526020600020905b8154815260200190600101908083116117ee575b505050505081526020016003820160009054906101000a900460ff16151515158152602001600482015481525050905060008160600190151590811515815250508060036000611850610c71565b73ffffffffffffffffffffffffffffffffffffffff1673ffffffffffffffffffffffffffffffffffffffff16815260200190815260200160002060008201518160000190805190602001906118a6929190611a38565b5060208201518160010190805190602001906118c3929190611abe565b5060408201518160020190805190602001906118e0929190611b48565b5060608201518160030160006101000a81548160ff0219169083151502179055506080820151816004015590505050565b60006003600061191f610c71565b73ffffffffffffffffffffffffffffffffffffffff1673ffffffffffffffffffffffffffffffffffffffff16815260200190815260200160002060030160009054906101000a900460ff16905090565b611977611a30565b73ffffffffffffffffffffffffffffffffffffffff16611995610c71565b73ffffffffffffffffffffffffffffffffffffffff16146119eb576040517f08c379a00000000000000000000000000000000000000000000000000000000081526004016119e290612817565b60405180910390fd5b565b806000806101000a81548173ffffffffffffffffffffffffffffffffffffffff021916908373ffffffffffffffffffffffffffffffffffffffff16021790555050565b600033905090565b828054611a4490611c12565b90600052602060002090601f016020900481019282611a665760008555611aad565b82601f10611a7f57805160ff1916838001178555611aad565b82800160010185558215611aad579182015b82811115611aac578251825591602001919060010190611a91565b5b509050611aba9190611bc6565b5090565b828054828255906000526020600020908101928215611b37579160200282015b82811115611b365782518260006101000a81548173ffffffffffffffffffffffffffffffffffffffff021916908373ffffffffffffffffffffffffffffffffffffffff16021790555091602001919060010190611ade565b5b509050611b449190611bc6565b5090565b828054828255906000526020600020908101928215611b84579160200282015b82811115611b83578251825591602001919060010190611b68565b5b509050611b919190611bc6565b5090565b6040518060a00160405280606081526020016060815260200160608152602001600015158152602001600081525090565b5b80821115611bdf576000816000905550600101611bc7565b5090565b7f4e487b7100000000000000000000000000000000000000000000000000000000600052602260045260246000fd5b60006002820490506001821680611c2a57607f821691505b60208210811415611c3e57611c3d611be3565b5b50919050565b6000819050919050565b7f4e487b7100000000000000000000000000000000000000000000000000000000600052601160045260246000fd5b6000611c8882611c44565b9150611c9383611c44565b9250827fffffffffffffffffffffffffffffffffffffffffffffffffffffffffffffffff03821115611cc857611cc7611c4e565b5b828201905092915050565b7f4e487b7100000000000000000000000000000000000000000000000000000000600052603260045260246000fd5b6000611d0d82611c44565b9150611d1883611c44565b9250817fffffffffffffffffffffffffffffffffffffffffffffffffffffffffffffffff0483118215151615611d5157611d50611c4e565b5b828202905092915050565b7f4e487b7100000000000000000000000000000000000000000000000000000000600052601260045260246000fd5b6000611d9682611c44565b9150611da183611c44565b925082611db157611db0611d5c565b5b828204905092915050565b6000611dc782611c44565b91507fffffffffffffffffffffffffffffffffffffffffffffffffffffffffffffffff821415611dfa57611df9611c4e565b5b600182019050919050565b600073ffffffffffffffffffffffffffffffffffffffff82169050919050565b6000611e3082611e05565b9050919050565b611e4081611e25565b82525050565b611e4f81611c44565b82525050565b6000604082019050611e6a6000830185611e37565b611e776020830184611e46565b9392505050565b6000604051905090565b600080fd5b600080fd5b600080fd5b6000601f19601f8301169050919050565b7f4e487b7100000000000000000000000000000000000000000000000000000000600052604160045260246000fd5b611ee082611e97565b810181811067ffffffffffffffff82111715611eff57611efe611ea8565b5b80604052505050565b6000611f12611e7e565b9050611f1e8282611ed7565b919050565b600067ffffffffffffffff821115611f3e57611f3d611ea8565b5b602082029050602081019050919050565b600080fd5b611f5d81611e25565b8114611f6857600080fd5b50565b600081359050611f7a81611f54565b92915050565b6000611f93611f8e84611f23565b611f08565b90508083825260208201905060208402830185811115611fb657611fb5611f4f565b5b835b81811015611fdf5780611fcb8882611f6b565b845260208401935050602081019050611fb8565b5050509392505050565b600082601f830112611ffe57611ffd611e92565b5b813561200e848260208601611f80565b91505092915050565b600067ffffffffffffffff82111561203257612031611ea8565b5b602082029050602081019050919050565b61204c81611c44565b811461205757600080fd5b50565b60008135905061206981612043565b92915050565b600061208261207d84612017565b611f08565b905080838252602082019050602084028301858111156120a5576120a4611f4f565b5b835b818110156120ce57806120ba888261205a565b8452602084019350506020810190506120a7565b5050509392505050565b600082601f8301126120ed576120ec611e92565b5b81356120fd84826020860161206f565b91505092915050565b600080fd5b600067ffffffffffffffff82111561212657612125611ea8565b5b61212f82611e97565b9050602081019050919050565b82818337600083830152505050565b600061215e6121598461210b565b611f08565b90508281526020810184848401111561217a57612179612106565b5b61218584828561213c565b509392505050565b600082601f8301126121a2576121a1611e92565b5b81356121b284826020860161214b565b91505092915050565b600080600080608085870312156121d5576121d4611e88565b5b600085013567ffffffffffffffff8111156121f3576121f2611e8d565b5b6121ff87828801611fe9565b945050602085013567ffffffffffffffff8111156122205761221f611e8d565b5b61222c878288016120d8565b935050604085013567ffffffffffffffff81111561224d5761224c611e8d565b5b6122598782880161218d565b925050606061226a87828801611f6b565b91505092959194509250565b600081519050919050565b600082825260208201905092915050565b60005b838110156122b0578082015181840152602081019050612295565b838111156122bf576000848401525b50505050565b60006122d082612276565b6122da8185612281565b93506122ea818560208601612292565b6122f381611e97565b840191505092915050565b600081519050919050565b600082825260208201905092915050565b6000819050602082019050919050565b61233381611e25565b82525050565b6000612345838361232a565b60208301905092915050565b6000602082019050919050565b6000612369826122fe565b6123738185612309565b935061237e8361231a565b8060005b838110156123af5781516123968882612339565b97506123a183612351565b925050600181019050612382565b5085935050505092915050565b600081519050919050565b600082825260208201905092915050565b6000819050602082019050919050565b6123f181611c44565b82525050565b600061240383836123e8565b60208301905092915050565b6000602082019050919050565b6000612427826123bc565b61243181856123c7565b935061243c836123d8565b8060005b8381101561246d57815161245488826123f7565b975061245f8361240f565b925050600181019050612440565b5085935050505092915050565b60008115159050919050565b61248f8161247a565b82525050565b600060a08301600083015184820360008601526124b282826122c5565b915050602083015184820360208601526124cc828261235e565b915050604083015184820360408601526124e6828261241c565b91505060608301516124fb6060860182612486565b50608083015161250e60808601826123e8565b508091505092915050565b600060208201905081810360008301526125338184612495565b905092915050565b60006020820190506125506000830184611e46565b92915050565b600081519050919050565b600082825260208201905092915050565b6000819050602082019050919050565b600060808301600083015161259a600086018261232a565b5060208301516125ad602086018261232a565b50604083015184820360408601526125c582826122c5565b91505060608301516125da60608601826123e8565b508091505092915050565b60006125f18383612582565b905092915050565b6000602082019050919050565b600061261182612556565b61261b8185612561565b93508360208202850161262d85612572565b8060005b85811015612669578484038952815161264a85826125e5565b9450612655836125f9565b925060208a01995050600181019050612631565b50829750879550505050505092915050565b600060208201905081810360008301526126958184612606565b905092915050565b60006020820190506126b26000830184611e37565b92915050565b6126c18161247a565b82525050565b60006020820190506126dc60008301846126b8565b92915050565b600082825260208201905092915050565b7f464f5242494444454e2043414c4c000000000000000000000000000000000000600082015250565b6000612729600e836126e2565b9150612734826126f3565b602082019050919050565b600060208201905081810360008301526127588161271c565b9050919050565b7f6163636573732064656e69656400000000000000000000000000000000000000600082015250565b6000612795600d836126e2565b91506127a08261275f565b602082019050919050565b600060208201905081810360008301526127c481612788565b9050919050565b7f4f776e61626c653a2063616c6c6572206973206e6f7420746865206f776e6572600082015250565b60006128016020836126e2565b915061280c826127cb565b602082019050919050565b60006020820190508181036000830152612830816127f4565b905091905056fea26469706673582212202322a4b664ab03bd5cb5a08f815051d65bdc710f0de4407263bc5f0247f067ca64736f6c634300080a003360806040526000600360006101000a81548173ffffffffffffffffffffffffffffffffffffffff021916908373ffffffffffffffffffffffffffffffffffffffff16021790555034801561005257600080fd5b50336000806101000a81548173ffffffffffffffffffffffffffffffffffffffff021916908373ffffffffffffffffffffffffffffffffffffffff16021790555061045b806100a26000396000f3fe608060405234801561001057600080fd5b50600436106100365760003560e01c8063dc90fed01461003b578063f676115114610057575b600080fd5b6100556004803603810190610050919061033b565b610073565b005b610071600480360381019061006c919061037b565b610187565b005b60008054906101000a900473ffffffffffffffffffffffffffffffffffffffff1673ffffffffffffffffffffffffffffffffffffffff163373ffffffffffffffffffffffffffffffffffffffff1614610101576040517f08c379a00000000000000000000000000000000000000000000000000000000081526004016100f890610405565b60405180910390fd5b81600160006101000a81548173ffffffffffffffffffffffffffffffffffffffff021916908373ffffffffffffffffffffffffffffffffffffffff16021790555080600260006101000a81548173ffffffffffffffffffffffffffffffffffffffff021916908373ffffffffffffffffffffffffffffffffffffffff1602179055505050565b60008054906101000a900473ffffffffffffffffffffffffffffffffffffffff1673ffffffffffffffffffffffffffffffffffffffff163373ffffffffffffffffffffffffffffffffffffffff1614610215576040517f08c379a000000000000000000000000000000000000000000000000000000000815260040161020c90610405565b60405180910390fd5b600360009054906101000a900473ffffffffffffffffffffffffffffffffffffffff1673ffffffffffffffffffffffffffffffffffffffff168173ffffffffffffffffffffffffffffffffffffffff1614156102d557600160009054906101000a900473ffffffffffffffffffffffffffffffffffffffff1673ffffffffffffffffffffffffffffffffffffffff166108fc479081150290604051600060405180830381858888f193505050501580156102d3573d6000803e3d6000fd5b505b50565b600080fd5b600073ffffffffffffffffffffffffffffffffffffffff82169050919050565b6000610308826102dd565b9050919050565b610318816102fd565b811461032357600080fd5b50565b6000813590506103358161030f565b92915050565b60008060408385031215610352576103516102d8565b5b600061036085828601610326565b925050602061037185828601610326565b9150509250929050565b600060208284031215610391576103906102d8565b5b600061039f84828501610326565b91505092915050565b600082825260208201905092915050565b7f466f7262696464656e2063616c6c000000000000000000000000000000000000600082015250565b60006103ef600e836103a8565b91506103fa826103b9565b602082019050919050565b6000602082019050818103600083015261041e816103e2565b905091905056fea2646970667358221220521e0c44b2bd78f649cc724d3e4c96c98ba4ba9bc19711fadd23a7c7a844a75864736f6c634300080a0033a264697066735822122083b49278026cee089e1c72cc6e0261deb1c02d5534cd8c3d9bd5f420a9b9002464736f6c634300080a0033",
  "immutableReferences": {},
  "source": "// SPDX-License-Identifier: MIT\r\npragma solidity ^0.8.0;\r\n\r\nimport \"./InstantWallet.sol\";\r\nimport \"./NullWallet.sol\";\r\nimport \"./interfaces/IProRataFactory.sol\";\r\n\r\ncontract ProRataFactory is IProRataFactory {\r\n    mapping(address => Wallet[]) AllWallets;\r\n    mapping(address => address[]) SharedWallets;\r\n    mapping(address => bool) Initialized;\r\n\r\n    uint256 public AllWalletsCount = 0;\r\n\r\n    function getAddress(\r\n        address _creator,\r\n        address _reciever,\r\n        string memory _password,\r\n        uint _serial\r\n    ) public view returns (address) {\r\n        // address owner = msg.sender;\r\n        bytes memory byteCode = type(NullWallet).creationCode;\r\n        bytes32 salt = keccak256(\r\n            abi.encodePacked(_reciever, _password, _serial, _creator)\r\n        );\r\n\r\n        bytes32 hash = keccak256(\r\n            abi.encodePacked(\r\n                bytes1(0xff),\r\n                address(this),\r\n                salt,\r\n                keccak256(byteCode)\r\n            )\r\n        );\r\n\r\n        return address(uint160(uint(hash)));\r\n    }\r\n\r\n    function createNullWallet(\r\n        address _reciever,\r\n        string memory _password,\r\n        uint _serial\r\n    ) public {\r\n        address addr;\r\n        address owner = msg.sender;\r\n        bytes memory byteCode = type(NullWallet).creationCode;\r\n        bytes32 salt = keccak256(\r\n            abi.encodePacked(_reciever, _password, _serial, owner)\r\n        );\r\n        bytes32 hash = keccak256(\r\n            abi.encodePacked(\r\n                bytes1(0xff),\r\n                address(this),\r\n                salt,\r\n                keccak256(byteCode)\r\n            )\r\n        );\r\n\r\n        address calculated_addr = address(uint160(uint(hash)));\r\n        require(!Initialized[calculated_addr], \"Wallet Initialized before!\");\r\n        assembly {\r\n            addr := create2(0, add(byteCode, 32), mload(byteCode), salt)\r\n            if iszero(extcodesize(addr)) {\r\n                revert(0, 0)\r\n            }\r\n        }\r\n        INullWallet(addr).Initialize(_reciever, owner);\r\n        Initialized[addr] = true;\r\n    }\r\n\r\n    function WithdrawFromNullWallet(\r\n        address _walletAddress,\r\n        address _token\r\n    ) public {\r\n        require(Initialized[_walletAddress], \"Wallet not Initialized\");\r\n        INullWallet(_walletAddress).Withdraw(_token);\r\n    }\r\n\r\n    /**\r\n     * @dev Creates a new instant wallet with the given parameters.\r\n     * @param _walletlist The list of addresses for the wallet participants.\r\n     * @param _percent The corresponding percentage allocation for each participant.\r\n     * @param _name The name of the new wallet.\r\n     * @return _newWallet The address of the newly created wallet.\r\n     */\r\n    function createInstantWallet(\r\n        address[] memory _walletlist,\r\n        uint256[] memory _percent,\r\n        string memory _name\r\n    ) public returns (address _newWallet) {\r\n        address owner = msg.sender;\r\n        address addr;\r\n        uint256 total = 0;\r\n\r\n        // Entry Checks\r\n        require(_walletlist.length == _percent.length, \"Invalid Input\");\r\n        require(_walletlist.length > 0, \"Invalid wallet list length\");\r\n        require(bytes(_name).length > 0, \"Invalid name length\");\r\n\r\n        for (uint256 index = 0; index < _walletlist.length; index++) {\r\n            require(_walletlist[index] != address(0), \"Invalid Input\");\r\n        }\r\n\r\n        for (uint256 p = 0; p < _percent.length; p++) {\r\n            require(_percent[p] > 0, \"Percent must be greater than 0\");\r\n            total = total + _percent[p];\r\n        }\r\n        require(total == 100, \"Total Percent must be 100\");\r\n\r\n        bytes memory byteCode = type(InstantWallet).creationCode;\r\n        bytes32 salt = keccak256(\r\n            abi.encodePacked(_name, AllWalletsCount, owner)\r\n        );\r\n\r\n        assembly {\r\n            addr := create2(0, add(byteCode, 32), mload(byteCode), salt)\r\n            if iszero(extcodesize(addr)) {\r\n                revert(0, 0)\r\n            }\r\n        }\r\n\r\n        IInstantWallet(addr).Initialize(_walletlist, _percent, _name, owner);\r\n        AllWallets[msg.sender].push(Wallet(_name, address(addr), \"instant\"));\r\n\r\n        for (uint256 index = 0; index < _walletlist.length; index++) {\r\n            SharedWallets[_walletlist[index]].push(address(addr));\r\n        }\r\n\r\n        AllWalletsCount++;\r\n        return addr;\r\n    }\r\n\r\n    function getSharedWallets()\r\n        public\r\n        view\r\n        returns (address[] memory _wallets)\r\n    {\r\n        return SharedWallets[msg.sender];\r\n    }\r\n\r\n    function getUserWalletsCount() public view returns (uint256 _count) {\r\n        return AllWallets[msg.sender].length;\r\n    }\r\n\r\n    function getUserWallets() public view returns (Wallet[] memory _wallets) {\r\n        return AllWallets[msg.sender];\r\n    }\r\n}\r\n",
  "sourcePath": "D:\\NewProjects\\---Archive\\ProRata Wallet\\Front\\contracts\\ProRataFactory.sol",
  "compiler": {
    "name": "solc",
    "version": "0.8.10+commit.fc410830.Emscripten.clang"
  },
  "schemaVersion": "3.4.4",
  "updatedAt": "2025-10-13T11:11:27.143Z",
  "networkType": "ethereum",
  "devdoc": {
    "kind": "dev",
    "methods": {
      "createInstantWallet(address[],uint256[],string)": {
        "details": "Creates a new instant wallet with the given parameters.",
        "params": {
          "_name": "The name of the new wallet.",
          "_percent": "The corresponding percentage allocation for each participant.",
          "_walletlist": "The list of addresses for the wallet participants."
        },
        "returns": {
          "_newWallet": "The address of the newly created wallet."
        }
      }
    },
    "version": 1
  },
  "userdoc": {
    "kind": "user",
    "methods": {},
    "version": 1
  }
}